:10000000BBC50000CBC50000C9C50000C7C50000C6
:10001000C5C500000C948134C1C500000C94E40FE8
:10002000BDC50000BBC500000C94EE270C947034D5
:100030000C9475340C94CA27B1C50000AFC50000FC
:100040000C944F34ABC50000A9C50000A7C5000043
:10005000A5C500000C94E50FA1C500009FC50000D8
:100060009DC500009BC50000E62FF72F903009F4D6
:100070009395E5B8C4B8B7EFB0937A00A5E0A09324
:100080007B00A8E0A093810010928000AFEFA093C6
:100090008500A0938400A6E0A093360010928B0008
:1000A00010928A00B6E0AFE7A91B51E0392F363035
:1000B0002AF0A058B94F53953650F9CFB093890024
:1000C000A0938800A0917A00A4FFFCCFB7EBB09377
:1000D0007A00A2E0A0936F00A9E0A093810062E003
:1000E000A0E0A0937B00A1E0A09353008895E5B821
:1000F000C4B884FF19C0A3E4AA95F1F7EF93FF9366
:10010000E7B1F8B1A4E0C2FCA2E0C0FCA1E0BF2FBF
:10011000BA2BAE2BB8B904B9A7B9E7B9F8B9FF91B2
:10012000EF910AC00C947300A7E40000AA95F1F7C0
:1001300025B9E5B8000004B9A0918400A09185001C
:10014000B0918900A395AB1768F7A0917A00A4FF3E
:10015000F3CFB7EBB0937A006A9571F760917800AE
:1001600070917900308186FD630F6193308186FD47
:10017000731F80FF7193652F4A9579F710926F0076
:1001800010928100B7E0B0937A000895C001B901E0
:10019000B20118000720080808F80000002060A03D
:1001A0003FA06020020202FF0202021010101F0096
:1001B0000000050842818989760508C2A1918986D7
:1001C0000508000402FF0010100508F87838588868
:1001D000091003081C3E7F0D080710FF818181F183
:1001E000E1C1FF4040404743410D080110FFFF11AE
:1001F000080310F1E1C14743410E000820212112FC
:100200002060E0E0E0FEFE0402010001037F7F21A8
:10021000C2C4C4C04094840007030102040E080253
:1002200010FEFE7F7F00000000110005202060E02E
:10023000E0E00201000103C2C4C4C04007030102A0
:10024000040104100102044E6F742063616C696242
:1002500072617465642100B903870358032E030794
:1002600003E402C302A40288020000140029003E35
:10027000005300690080009700AE00C600DF00F860
:100280000012012D01490165018201A001BE01DEBC
:1002900001FF012102440268028E02B502DE02095A
:1002A00003350364039403C803FE0337047304B4E3
:1002B00004F90443059305EA054906B3062907AE88
:1002C000074808FF08DE09FD0A930C480F991B0038
:1002D0000000000000000000000000000000001E00
:1002E0002121211200807F0000007E4A4A4A34000A
:1002F0000000000000FC4020100804020100000083
:10030000010101010101010101010101017F0488D5
:10031000D0E0F0F800000000000000000000000045
:10032000000000000000FC94948400000102FC0026
:1003300000000000000000000000001E212121122A
:10034000E0C0804020100F000000C02020204000AE
:100350000000FC00009E9E04030303030200000053
:10036000202023242525232020203F00007B7B21E3
:1003700042840480C0000000000000000000000073
:10038000000000FC94948400040607070708F000AE
:10039000000000000000000000000000803F21215C
:1003A000120C00000000FF000000F0084848C800E0
:1003B00000FE0000E7818181C1E1F18181810100BE
:1003C0002020202121212020203F0000F340404018
:1003D00041434740407FC000000000000000000093
:1003E0000000000000489494946400000000FF00A6
:1003F0000000000000000000000000000000003FBE
:100400002121120C0000FF000000F0084848D00035
:100410000000000000FEFE040404040404040700BD
:1004200008080809090908087F3E1C08087F7F2082
:10043000202020202020E00000000000000000001C
:100440000000000000000048949494640000FF0045
:1004500000000000000000000000FF003C0A090A44
:100460003C002231292926000082868E9EBEFEFE97
:10047000BEDEEFF6FAFEFEFAF2E2C28200000008EB
:10048000080804027984A4A46800FF0000000000AA
:10049000000000000000000000000000000000005C
:1004A0000000FF0000F0282428F0001008FC0000E5
:1004B000000000000000000000003C0A090A3C00A7
:1004C000FF0000000000000000000000000000002D
:1004D000000000040C1C3C7CFF7C3C1C0C04000055
:1004E000000000009EA1A9A99A804323130B0703D3
:1004F000FF030303030303000000000000000000EB
:100500000000788484844800FF00000000000000A0
:100510000000F00804E2110909090909090909099B
:100520001121C2040810E0000000010204040700C9
:1005300000000000804020108844231008040300BD
:1005400000000000000000000000FE0100FC0201AD
:10055000000000000000000000000000000000009B
:100560000000794949790000000000000000000007
:10057000F804022254880403000202010078840275
:10058000020284780604070007040600FC0000004D
:1005900080FC0007010101000100000C12120C0098
:1005A000000000000000000000000000000000004B
:1005B0000000000000003CFE3C00000000000600BF
:1005C00000000000160E00160E00000000000000E3
:1005D000000010FC1010FC100001070101070100D1
:1005E0001824FE4488000003040F0403000C129238
:1005F0004C2010080201000609090688542254887C
:1006000000800102040402010200160E0000000036
:10061000000000000000000000F0080402000000DC
:1006200001020408000000020408F00000000804B1
:100630000201004850E0FCE05048020100070001C0
:1006400002404040F840400000000003000000006D
:10065000000000000000000B0500000000404040CA
:10066000404040400000000000000000000000008A
:10067000000000060600000000000000C0300C036F
:10068000000C0300000000F8844222120CF8010262
:10069000040404020100080402FE0000000000003F
:1006A000070000188442424224180704040404048A
:1006B000040C020222225488030404040402016090
:1006C00050484442FE40000000000007003E221255
:1006D000121222C201020404040201F824121212AE
:1006E00022C4010204040402010202824222120E08
:1006F00000070000000000885422222254880102D2
:100700000404040201384482828244F8020404048E
:100710000402010018180000000000060600000096
:100720000000181800000000000B07000000000087
:1007300040A010080402000000010204080020206C
:100740002020202000010101010101000204081005
:10075000A04000080402010000180402824224188C
:100760000000000D000000FC0262929292FC030463
:100770000404040400F08884828488F007000000E8
:10078000000007FE2222222222DC070404040404C3
:1007900003FC02020202020C03040404040403FE2C
:1007A0000202020202FC07040404040403FE2222E3
:1007B0002222220207040404040404FE222222222C
:1007C000020207000000000000FC0202024242CCCC
:1007D00003040404040207FE2020202020FE07005A
:1007E0000000000007000002FE02000000000407F5
:1007F0000400000000000000FE00000204040403E6
:1008000000FE20508804020007000000010204FEE0
:1008100000000000000007040404040404FE0408AF
:10082000100804FE07000000000007FE06186080A4
:1008300000FE07000000010607FC0202020202FCA3
:1008400003040404040403FE42424242423C070003
:100850000000000000FC0202020202FC0304040487
:10086000050205FE4242C242423C0700000001026E
:10087000040C12222222428C030404040404030206
:100880000202FE02020200000007000000FE00005B
:10089000000000FE030404040404030E70800080C2
:1008A000700E000003040300007E8000E000807EE4
:1008B00000000700070000020C9060900C02040387
:1008C00000000003041E20408040201E000000079E
:1008D00000000002824222120A06070404040404F3
:1008E0000400FE02020000000007040400000008EB
:1008F0001020408000000000000000010200000005
:100900000202FE00000000040407001008040204B4
:1009100008100000000000000000000000000000BF
:10092000040404040404040000000E160000000087
:100930000000000000804848484848F003040404D0
:10094000040207FE2010101010E007040404040441
:1009500003F008080808081003040404040402E073
:100960001010101020FE03040404040407F088880B
:1009700088888870030404040404040020FC2222F4
:10098000020400000700000000708888888888F052
:1009900000040404040403FE4020101010E00700CB
:1009A0000000000007000008FA0000000000000737
:1009B00000000000000000FA00000204040403002C
:1009C00000FE4040A01008000700000001020400E3
:1009D0000002FE00000000000003040000F8100800
:1009E000F00808F007000007000007F820100808CA
:1009F00008F007000000000007F00808080808F0E9
:100A000003040404040403F89008080808F007002D
:100A10000101010100F00808080890F80001010137
:100A2000010007F820100808083007000000000047
:100A30000030484888888810020404040404030035
:100A400010FE1010000000000304040402F800006F
:100A5000000000F80304040404020718608000800A
:100A6000601800000106010000F80000C00000F856
:100A700001020403040201081020C020100804022F
:100A80000100010204788080808040F802040404A0
:100A9000040403080888482818080205040404040C
:100AA0000440A01C0202000000000708080000002B
:100AB0000000FF0000000000000F00000000000226
:100AC000021CA04000000808070000040201020404
:100AD000080400000000000000E0100804040810F2
:100AE0000101010101010140F010101010F040005F
:100AF0000101010101010040FCF8F0E040FC400070
:100B00000703010000070040FC40E0F0F8FC400053
:100B10000700000103070040FCFC0000FCFC400053
:100B200007070000070700F8080808080808080376
:100B30000202020202020208080808080808F80275
:100B40000202020202020340404040404040400096
:100B50000000000000000040C000C020C000C00035
:100B60000102020102020220C000C020C000C00138
:100B7000020202010202010011241FBECFEFD8E0E1
:100B8000DEBFCDBF21E0A0E0B1E001C01D92AA3CD4
:100B9000B207E1F70E94AD140C94AA3D31CA5D98EA
:100BA000559A80FD599A80FF5998519A549A5A98AB
:100BB00067FD5C9A67FF5C985A9A5A9866FD5C9A42
:100BC00066FF5C985A9A5A9865FD5C9A65FF5C9836
:100BD0005A9A5A9864FD5C9A64FF5C985A9A5A989B
:100BE00063FD5C9A63FF5C985A9A5A9862FD5C9A1E
:100BF00062FF5C985A9A5A9861FD5C9A61FF5C9812
:100C00005A9A5A9860FD5C9A60FF5C985A9A5D9A6D
:100C10005A985C98089597FF09C08F939F938DE22F
:100C2000EFD59F918F91909581959F4F62E271E0F2
:100C30004AE050E00E94493D36C60895ECDF01C00D
:100C4000EADF80E2DDC58DE2DBC58DE3D9C5EF9239
:100C5000FF920F931F93182F062FF42E88E691E032
:100C60003AD6EE24E0913D01F0913E018685E816EA
:100C700011F4812F09C08485E81611F4802F04C077
:100C80008585E81611F48F2DBBD5E3948E2D833026
:100C900049F71F910F91FF90EF900895EF92FF9207
:100CA0000F931F93182F062FF42E80E0A2D4C9DFD4
:100CB0008EE691E010D64F2D602F812FC8DF1F9157
:100CC0000F91FF90EF900895682F80E092E06623E7
:100CD00009F491E0623009F481E008950F93082F40
:100CE000E2EBF1E0880F880FE80FF11D6081718160
:100CF00082819381643671058105910568F42091A4
:100D0000200127FD09C0802FDFDF692FF4D16EEFAE
:100D100023E04DE116D704C04FEF04E02DE12ED6BD
:100D200090DF0F910895863058F4E1EAF1E0E80F82
:100D3000F11DE80FF11D8081918163E022D781CF01
:100D400008951F93182F80917801882319F079DF77
:100D500080E056D590D38FE591E0BDD5812F829567
:100D60008F70E1DF812F8F70DEDF1F9108958091FA
:100D7000060182958F7019D08091060183701CD076
:100D800080910601DECF0895E5E9F1E0E80FF11D5D
:100D90000895CF93F9DF9081C681C91710F405D06B
:100DA00001C013D04EDFCF910895EEDF8F93808185
:100DB00077D58F9101C008958F9387E291E08BD50D
:100DC0008F91E2DF86816CC50895DEDF8F93868187
:100DD00067D58F9101C008958F9383E291E07BD511
:100DE0008F91D2DF80815CC5089503D002D001D0FD
:100DF00000D000D003D002D001D000D000D003D06A
:100E000002D001D000D000D0A89503D002D001D0EC
:100E100000D000D003D002D001D000D000D003D049
:100E200002D001D000D000D003D002D001D000D039
:100E300000D00000089582E090E0893C28F0885CB2
:100E400048EC849FC0011124009709F40895409153
:100E50008100477019F0D8DF0197F6CF81309105F6
:100E600019F002975CE803C05EE380E090E04091F7
:100E7000B200450F4093B30042E04093700047E05A
:100E800043BF889546E043BF10927000A895DCCF21
:100E90008F9384E0D1DF06C08F93CDDF03C08F93A3
:100EA00081E0CADF8F911F93182F106410937C008C
:100EB000E12FE07880912D01E81759F0E0932D01A2
:100EC000ADDF8FE980937A0083E083BF889582E06D
:100ED00083BF20E030E0A901E0E01FC08FE98093EC
:100EE0007A0083E083BF889582E083BF60917800B9
:100EF00070917900260F371F411D511DE43061F4B8
:100F000080912F01803041F084E02030380720F4B8
:100F100017FD02C01068CACFEF5F80912C01E8175F
:100F2000E8F2609130017091310117FF04C06091C7
:100F30002E0170912F0180E090E00E94BF3B2FEFC7
:100F400033E040E050E00E94013CB901CA01209129
:100F50002C0130E040E050E00E94013CC9011F91AB
:100F600008959B01281B390B50F0C9010895BC015D
:100F700080913001909131016817790718F4861B30
:100F8000970B089580E090E008958FE393E00E942E
:100F9000843D2091340130913501280F391F209371
:100FA00016013093170183E0283E380720F0C9016D
:100FB000885E934002C080E090E062E370E00E94AF
:100FC000DA3B683008F067E0E7E5F2E0E60FF11D94
:100FD000E60FF11D459155912591359162E3681B0E
:100FE000421B530B649FC001659F900D11244996CD
:100FF00062E370E00E94DA3B620F731F70937C0122
:1010000060937B0181E493E00E947C3D992787FDFA
:1010100090956091340170913501860F971F9093E0
:101020002F0180932E01909377018093760108958C
:101030000F9221E08C32920710F48CE291E08C52F6
:10104000914069E170E00E94DA3B99E16B3210F067
:10105000982F6BE2981BEDEBF2E0E60FF11DE60F27
:10106000F11D9F93CF010E947C3D482F3196CF0107
:101070000E947C3D582F3196CF010E947C3D282F45
:101080003196CF010E947C3D382F6F91421B530B4C
:10109000649FC001659F900D11240C9669E170E07A
:1010A0000E94DA3B620F731FCB010F900895CF931C
:1010B000DF9324E130E0B9010E94DA3BDC01E9E68C
:1010C000F2E0E60FF71FE60FF71FC591D5914591A6
:1010D00055914C1B5D0B4A9FC0014B9F900D5A9F31
:1010E000900D1124B9010E94DA3B6C0F7D1FCB01DA
:1010F000DF91CF910895AEE1B0E0E1E8F8E00C9423
:10110000E93C662EB82E860F898320911A0128307B
:1011100059F52091810130918201409183015091D4
:10112000840157FD15C01091900109C0CA01B90191
:101130002AE0312D412D512D0E94013C1F5F173FA8
:10114000ACF391F4243160E036074105510518F401
:101150008FEF9FEF41C1173F39F480E028178DE7EB
:1011600038074105410510F020E03DE72C8B3D8B11
:1011700027EDA22EE4E4F2E0E60DF11D85918060FA
:101180008E87E4E4F2E0EB0DF11D859180608F879E
:10119000E1E4F2E0E60DF11D7590E1E4F2E0EB0D23
:1011A000F11DC59090EC692AB92A81E0E82EF12C56
:1011B000012D112D8E831F82188619861A861B8693
:1011C0001C861D86188E198E1B8E1A8E0E9417245F
:1011D00080E088B960927C0021DE3F8537B975B820
:1011E00074B855E05A95F1F7000014B815B8DD242D
:1011F0003E8537B975B874B860927C00A895A09206
:101200007A0080917A0086FDFCCF209078003090A3
:101210007900B0927C004C2DE3D020917800309181
:101220007900288B398B3F8537B9C5B8C4B8A895E4
:10123000B0927C00A0927A0080917A0086FDFCCF6B
:10124000609178007091790060927C00472DC8D041
:10125000409178005091790014B8CB01820D931D14
:10126000E80EF91E011D111DEA82FB820C831D830D
:1012700088899989840F951F2E813F81688579859A
:10128000280F391F611D711D2E833F836887798761
:1012900022E32417150648F075B874B8C9DD14B8F0
:1012A00015B8888D8395888F07C0483E73E057072F
:1012B00018F08A8D83958A8F88899989281719064D
:1012C00058F03E8537B9C5B8C4B8B2DD14B815B802
:1012D000898D8395898F07C0883E73E0970718F042
:1012E0008B8D83958B8FD3945D2D5F3F49F05F3756
:1012F00031F45C2D550FC50E572D550F750E78CF57
:101300004090390150903A01440C551C9201E4E0A0
:10131000240D351DEA95E1F72901570168016E801A
:101320007F808884998420911A012830C1F46C89C7
:101330007D89812D912D65507040804090409B01AA
:10134000AC010E94BF3B9B01AC0160E779E786E1FD
:1013500090E00E94013C621A730A840A950AA6145E
:10136000B704C804D90428F46A187B088C089D08BF
:1013700003C0662477244301B20180E090E093012A
:10138000A4010E94BF3B9501A6010E94013C87E198
:1013900093E07981870F911D0E947C3D682EC901E1
:1013A00060E170E00E94DA3B260F371FC901681622
:1013B000190618F4861991090FC08C5E9F4F861587
:1013C000910540F48C899D89843981E1980710F05A
:1013D0000E945314812D912D6E96E2E10C94053DEF
:1013E000109281001092800010926F0010928B007A
:1013F00010928A0057E056BB5FEF509385005093E0
:10140000840055E050937B0057EB50937A0051E0F5
:10141000509381005FE45A95F1F70000000045B950
:1014200044B95BE05A95F1F714B815B810928100F1
:1014300080917A0084FFFCCF80937A000895CF9347
:10144000C82F1C1614F0CF910895FBDBC150F9CFC3
:1014500060933C018093030186958093B101660FF0
:10146000660F660F6093040108951092B10160E069
:1014700080E0EECF089581E08093B10160E082E0EA
:10148000E7CF089582E08093B10160E084E0E0CF8F
:10149000089583E08093B10160E086E0D9CF08959C
:1014A00080913C01809301018091B1018093020100
:1014B00008958091020160910101880FC9CF0895BC
:1014C000CF93C82F692F81E06ADB6C2F81E067DB47
:1014D000CF910895682F80E062CB0895CF93DF937A
:1014E0008AE2F8DF90E080E0EBDF80EA90E0E8DF7E
:1014F0008BE2F0DF90E080E0E3DF83E890E0E0DF84
:101500008CE2E8DFC3E8A895D0EA90E080E0D8DF7D
:10151000D150D9F7C150B9F7A8DFDF91CF91089525
:1015200058985A985C985D98509A529A549A559A3D
:101530007ADC5D9A559A5998519A84E17DDC589AE3
:1015400084E17ADC8AE078DC81E1C4DF84E074DC69
:1015500086E2C0DF64E081E022DB81EBBBDF6EE08E
:1015600081E01DDB64E181E01ADB80ECB3DF80E029
:101570009EE0A6DF81ECAEDF65E081E010DB85EC6C
:10158000A9DF80E498E39CDF8AE3A4DF65E081E0E3
:1015900006DB86E39FDF6CE381E001DB84EB9ADF0F
:1015A00060E081E0FCDA9ADF89E294DF8AE044CCF3
:1015B000089590913C0184E1891B41CF0895CF9318
:1015C000C82FF7DF9091B1019F5F9093B1019830E0
:1015D00068F087E08093B10181E080933F018091C2
:1015E000B1016C2F880F34DFCF91089510923F0125
:1015F000F6CFE5DFC0C4089538DFDBDF36CF0895CE
:101600003ADFD7DF38CF0895582F28E030E090E850
:1016100041E080E0652F642309F0892B440F969503
:1016200021503109B9F70895A6E0B0E0EAE1FBE006
:101630000C94E93C8D839E83542E10E070E0CB0126
:10164000800F911F813A91050CF08DC08E2D90E096
:10165000AC01450D511D413851050CF084C0EA9490
:101660004E2C450C47FE02C0EFE74E2E322F327053
:10167000398321FF13C0019753E0959587955A95BB
:10168000E1F7809FA001819F500D909F500D112484
:101690008D819E81840F951F9E838D83CB01029641
:1016A0009B838A8321702C83451408F45CC0AD8031
:1016B000BE80A00EB11E7501D12CC12C852D90E0ED
:1016C0002AE7622E712C681A790A31E8232E312C10
:1016D000281A390A37C08BE2FDDEC301F1DEC101F1
:1016E000EFDE8AE2F7DE8A809B808C0C9D1CC401B1
:1016F000E7DEC401E5DE8CE2EDDE9C81F701319787
:10170000911104C0ED81FE81EC0DFD1D9490398195
:10171000332319F0892D78DF982E48E0842E8091AC
:101720005A0190915B0197FC02C090E080E0C8DE16
:10173000990C8A948110F3CF8FEFC81AD80A91E0E0
:10174000E91AF1088D819E81E816F90609F0C3CFE8
:101750009981992319F05701A01AB10A38E0530E64
:10176000BE82AD82A1CF2696E2E10C94053DEF92B8
:101770000F93282F8FEF93E090935B0180935A0192
:10178000822F8F7330E6839FC001112481539D4FB8
:1017900038E026FF38E5309305011092000127FD5F
:1017A00008C02091050130E2309300012D5D2093A7
:1017B000050120E2E22E08E120E040910001609165
:1017C000050132DF0F91EF900895EF920F93DC0146
:1017D000262FFC0164913196449131960491319603
:1017E000E490E09100014E0F80910501680FCD015A
:1017F00004961ADF0F91EF90089560E0E6CF089508
:10180000EF920F93282F80EE97E090935B018093E7
:101810005A0180913C018F5F80933C01822F90E0C0
:1018200040910301440F440F440F609104012C3098
:10183000A8F424E0880F991F2A95E1F730E1E32E00
:1018400008E020E08951954FEFDE80910401885F28
:1018500080930401A8950F91EF9008954C972EE086
:10186000289FF001299FF00D112480E1E82E07E068
:1018700020E0CF0181599A4FD7DE60910401695F62
:101880006093040140910301440F440F440F01E0B1
:1018900020E087EA95E0C8DE809104018F5FD8CF11
:1018A0008F5CAECF0895CF93DF93EC0189918111C6
:1018B00003C0DF91CF910895A3DFF8CFCF93DF93DB
:1018C000EC01FE018491882319F09ADF2196F9CF6B
:1018D000DF91CF910895CF93DF93EC01CE010E9469
:1018E0007C3D882319F08CDF2196F8CFDF91CF91D2
:1018F0000895EF920F93FC0104913196E4900296C3
:1019000093DE0F91EF9008950F93CF93DF9300D064
:1019100000D0CDB7DEB786E891E0DDDF40918F01E2
:101920004D3FACF480917D0190917E01A0917F01AB
:10193000B091800103E026E4BC01CD011FD00F90DF
:101940000F900F900F90DF91CF910F9108958FE33B
:1019500057DFF5CF909119019F70923071F449DEF5
:1019600084E690E0B8DFE0913D01F0913E0122E095
:101970004DE16FEF84819581E4C00895A2E1B0E06C
:10198000E4ECFCE00C94EB3C942EB22EA02E6B0108
:101990007C010F7080E389838A838B838C838D83A2
:1019A0008E83F7FE3BC04FD9F094E094D094C0945E
:1019B000C11CD11CE11CF11C48EE442E43E0542E06
:1019C000612C712C033009F442C030E1432E37E220
:1019D000532E612C712C0430D1F120EA422E26E8DE
:1019E000522E66246394712C053089F190E4492EBF
:1019F00092E4592E9FE0692E712C063041F154E695
:101A0000452E512C612C712C073009F580E8482EA9
:101A100086E9582E88E9682E712C19C0A5FECCCF16
:101A20008BE2EEDEC9CFD701C6010596A11DB11D1F
:101A30008F87988BA98BBA8BBC01CD012AE030E04F
:101A400040E050E00E94013C69017A019394C41483
:101A5000D504E604F70438F711E1190D8BEA189F55
:101A6000112D1124169526E02919289F812D112466
:101A7000782E76948E7F870D722E781A4E0197E01D
:101A8000890E911C2AE0A401C701B6010E94283DDD
:101A9000F40101900020E9F731977F01E818F90877
:101AA000DE2C872D90E004968E159F051CF41F5F99
:101AB000A3E07A0E812F90E0845D9F4F0E947C3DD1
:101AC000982E8A2D8071A4FE05C0802F8E19D01605
:101AD00008F080E00E2D0719080F101624F08EE292
:101AE0008FDE872D8E19711001C008EFA12CC82E32
:101AF000D12CEC0CFD1C002E000C110BEA2DF0E09B
:101B0000EE15FF0564F0992011F0892D79DEBB20D8
:101B100011F08B2D75DE6296E0E10C94073D369650
:101B2000EC19FD0981E090E08C0F9D1FE80FF91F73
:101B3000808166DEA394A016110601F78EE260DEB6
:101B4000DDCFCF92DF92EF92FF920F93CF93DF938F
:101B500000D000D0CDB7DEB7022F6C01F12CE12C04
:101B6000242F462FC701B60109DF0F900F900F9069
:101B70000F90DF91CF910F91FF90EF90DF90CF907A
:101B800008950F93CF93DF9300D000D0CDB7DEB789
:101B9000062F9C0150E040E029833A834B835C830D
:101BA00026E54DEF69817A818B819C81E7DE0F907C
:101BB0000F900F900F90DF91CF910F9108950F9399
:101BC000042F28E440E0DADE8AE71ADE3AD80F91E3
:101BD0000895E82FF0E0EE0FFF1FE457FE4F8591C8
:101BE000949120910001420F20910501620F20E0A5
:101BF00080CE0895CF93DF93C82FD62FE0913D017B
:101C0000F0913E0148E16EE18685E3DFE0913D0120
:101C1000F0913E014D2F6C2F8485DBDFE0913D017B
:101C2000F0913E0140E06EE18585D3DFDF91CF91F9
:101C300008951F93CF93DF9351DC80EC98DD62E031
:101C400082E991E0C2DD80E892DD87EC91E0D5DDAC
:101C500060E085E0FDDB8BE791E03DDE6AE085E05A
:101C6000F7DB83E791E037DE88E99AE31AD136DCC7
:101C700083E47DDD83E07BDD80ED91E0BEDD61E02E
:101C800082E0E6DB8EE4BCDD0E94230685E991E07C
:101C900022DE6BE082E0DCDB80E5B2DD0E94230621
:101CA00085E991E018DE88E99AE3FBD017DC81EC46
:101CB0005EDD81E85CDD89E292E09FDD60E085E049
:101CC000C7DB8EE49DDD0E94230685E499DD8FE865
:101CD00091E001DE6AE086E0BBDB80E591DD0E94F9
:101CE000230685E48DDD8FE891E0F5DD88E99AE350
:101CF000D8D0F4DB81E43BDD8DE192E07EDD81E054
:101D000036DD89EF91E079DD60E081E0A1DB8EE4F2
:101D100077DD0E94230684E473DD8FE891E0DBDD4C
:101D20006AE082E095DB80E56BDD0E94230684E4B7
:101D300067DD8FE891E0CFDD88E99AE3B2D0CEDBB2
:101D400082EC15DD82E813DD8FEE91E056DD60E078
:101D500085E07EDB8EE454DD0E94230685E450DDC1
:101D60008AE991E0B8DD6AE086E072DB80E548DD73
:101D70000E94230685E444DD8AE991E0ACDD88E930
:101D80009AE38FD0ABDB82E4F2DC89EE91E035DDC3
:101D900082E0EDDC87ED91E030DD61E081E058DB51
:101DA0008EE42EDD0E94230684E42ADD8AE991E098
:101DB00092DD6BE082E04CDB80E522DD0E942306B1
:101DC00084E41EDD8AE991E086DDC0E0D4E18C2F59
:101DD0006D2F0E94CE3B182F91110AC0C43120F400
:101DE00088E99AE35ED07ADB60E0812F880F30DBF0
:101DF0008CE18C0F05DDCF5FC43649F788E99AE3A3
:101E000050D06CDBDF91CF911F91089599B193FB76
:101E1000992790F94999926080911101843050F08E
:101E20008EE080930D0190930E011092120181E0DB
:101E30008093110180911101E82FF0E0E35FFE4FE4
:101E400030813917C9F091110EC020911201E3E0E1
:101E5000E80FE3703230C9F4F0E0E35FFE4F308109
:101E60002F5F3330D9F0E1E0E80FE370E093110128
:101E7000F0E0E35FFE4F90838091120187FD03C085
:101E80008093130108958195FBCF313061F7F0E025
:101E9000E35FFE4F3081333031F721502093120140
:101EA000E2CFB0E0A0E0E7E5FFE00C94F23CF82ED2
:101EB000E92E539851980E94090710921201E0915F
:101EC0001101F0E03196E370FF27E35FFE4F80EFF2
:101ED0008083C5E6D9E19ADF4F9B25C0CF2DDE2D4B
:101EE000D12C15E500E0BB24B394D7FD16C082E3E6
:101EF000C82E8CDF0E940D07CA94C110FACF110FB3
:101F00004F9B1F5F1F731F33A9F4011103C0CF2D17
:101F1000DE2D04E00F5F083C88F0802FCDB7DEB7E0
:101F2000E9E00C940E3D0E940D07D150A1F6C1507E
:101F300089F6D4CF111102C00111EFCFA8951C165C
:101F40001D0624F42A9711F4CFEFDFEF80911301DF
:101F5000882339F0D39480917901811102C0B09225
:101F6000790184E18D1508F0C0CF809112018111B3
:101F7000D4CFD12CBACFCF9393DAC82F80913F0121
:101F8000882301F1813051F4C73041F463E18EE0E0
:101F90005FDA8BE235DC63E18EE05ADA80E49FE1C0
:101FA00080DF811104C0809113018111F7CFC73008
:101FB00041F480913F01813021F460E08EE048DA05
:101FC000F8DA77DACF9108951895189540911801AD
:101FD000A0913D01B0913E01E5E9F1E030E020E063
:101FE000822F2417B0F451911C969C911C9759177D
:101FF00019F05581951303C02F5F3F4FF1CF220F8A
:10200000331FF901EF55FE4F20813181293E3340C6
:1020100008F084E1089510921A01109218011092AC
:10202000710110924F011092190110923B01109210
:102030007801ECE5F1E0108211821282EDE7F1E027
:10204000108A82E0818B10922001178616861482F6
:1020500015821682178281EF838B08955E980E9405
:10206000F80690E080E01DCF08951F93CF93DF9393
:10207000162F17B818B8E82FF0E0EF5BFD4F9491DA
:1020800095B9262F281BE20FF11D27FDFA95E49143
:10209000E92BE4B90E945307EC01812F0E945307FA
:1020A000AC01209130013091310136952795C9015D
:1020B0000397BE01625E7F4F8617970778F4255E0F
:1020C0003F4FC217D30750F4BA01625E7F4F8617A5
:1020D000970720F481E04217530708F080E014B816
:1020E000DF91CF911F910895CF9361E080E0BDDF34
:1020F000C82F62E080E0B9DFC80F62E081E0B5DFA1
:102100008C0FCF910895A6E1B0E0E9E8F0E10C94DE
:10211000E93CB82E10921A01807FB9F4E5DF8330D4
:1021200081F4DCD98FE492E0D6DBA5D98FE368DBBC
:1021300080ED97E0B6DE8B30B0F4D0D985EF90E03B
:10214000CADB6696E2E10C94053D06E910E0C6D9CB
:102150008EEB91E0C0DBC8DF833009F068C01F5F01
:10216000143008F465C087D90E940E2881EB90E0F6
:10217000B2DB60E089E193E00E94893D60E08AE1A2
:1021800093E00E94893D60E088E193E00E94893DF0
:1021900060E082E00E947B086C019A83898361E0A1
:1021A00082E00E947B087C019C838B8360E081E05D
:1021B0000E947B088C019E838D8323E040E26EEFBA
:1021C000C601BFDC23E040E26EEFC701BADC23E0CA
:1021D0004DE16EEFC801B5DC2AE5C216D10424F04A
:1021E00084E190E09A838983698189E193E00E9488
:1021F000893D8AE5E816F10424F084E190E09C83AF
:102200008B836B818AE193E00E94893D0A35110539
:1022100024F084E190E09E838D836D8188E193E0DA
:102220000E94893D82E080933F01A5DE07C010E057
:1022300088E20E941C07015009F089CF1B2D1F70F6
:10224000113009F051C0EE24E394F12C78EB872E85
:1022500072ED972E77E4A72EB12CE2E0DE2EF8E0A7
:10226000CF2EA0E23A2E1F860E2D5AE0252EC8D979
:10227000C3D984E5C5DAC7010E9416060E9421066B
:10228000013009F0D6C184EE90E025DB64E0809156
:1022900034019091350175DCEED88FED90E01BDBB9
:1022A00080917B0190917C010E9416068EEB8093B9
:1022B0002C0117B818B814B815B888EE93E0F1DD02
:1022C000043011F08B3028F49F859F5F9F879430F6
:1022D00071F688EE93E0E5DDAFEFEA1AFA0AB8E0AE
:1022E000EB16F10409F0BFCF08E7FEDE8111A2C2B0
:1022F000F5D88AEA90E0EFDA23E04DE16FEF8091C4
:102300003201909133011DDCB6D883EA90E0E3DA24
:1023100023E04DE16FEF8091390190913A0111DC9A
:1023200082E080933F0127DE10921A01D7D88FE90F
:1023300090E0D1DA60E082E00E94F12440908501D3
:102340005090860160908701709088015C864B8672
:1023500061E082E00E94F1248090850190908601E6
:10236000A0908701B09088019E868D8660E081E014
:102370000E94F124C0908501D0908601DE82CD823A
:1023800062E080E00E94F1248091850190918601B5
:102390009C838B8362E081E00E94F124809185011F
:1023A000909186019A87898761E080E00E94F124FC
:1023B000E0908501F0908601FA82E982C2010E94D4
:1023C0002006C4010E942006C6010D2C000CAA0B99
:1023D000BB0B8F87988BA98BBA8B03E026E444EF65
:1023E000BC01CD01CBDA113009F030C292E0E90E28
:1023F000F11CF886EF82DE0111967D015E01BFE0DF
:10240000AB0EB11CF701819191910A97853B910523
:10241000D0F4AE16BF06B9F748E3C42E43E0D42E7D
:10242000F7016081F2E0EF0EF11C6E5EC6010E94C2
:10243000893D2FEFC21AD20AEA14FB0489F71BD890
:102440008BEA91E048DA82E080933F0194DD0E94BC
:102450005E38113029F080913801823009F0D2C005
:102460003DD880E01DDA81E591E035DA82E018DAC6
:1024700084E290E030DA90E4E92EF12C2AE0822E1A
:10248000912CA12CB12C37EFD32EC5DD10921A015F
:1024900060E082E00E94F12410918F0120917D0183
:1024A00030917E0140917F0150918001012F073FC3
:1024B0000CF4D6C18D2D811B183F0CF080E0180F55
:1024C00010938F0120937D0130937E0140937F0113
:1024D00050938001173F09F0CBC1205631094109C3
:1024E0005109203935454105510508F0C1C16091B8
:1024F000910170919201CB018B569F4F8B3291408D
:1025000008F0B6C1F394B4E0BF1508F0B2C18FE390
:1025100093E00E94973D0E946E0A8DE190E0DBD926
:1025200080919101909192010E940B060E94C50733
:1025300018B881E087B980E284B982E00E9453072D
:10254000853D9340D4F714B810922F0110922E01BC
:1025500082E00E9453078C0180917601909177016F
:1025600090932F0180932E0182E00E9453076C010B
:10257000CC0CDD1C10922F0110922E0182E00E94E3
:1025800053074C01A0907601B0907701B0922F01D3
:10259000A0922E010E943B0A86E190E09CD981E442
:1025A00093E00E947C3DF82ED801A80DB91DAC190E
:1025B000BD0995010E944E3C96010D2C000C440B68
:1025C000550B0E94233C13E01F0D120F612F81E475
:1025D00093E00E94893D812F012E000C990B0E94EF
:1025E0000B060E94C50782E080933F01C4DC109275
:1025F000380188E393E00E947C3D682F8BE393E0F1
:102600000E94893D89E180932C0180E00E94793B02
:102610000E946E0A85EF90E05ED90E943B0A86E335
:1026200092E059D910921A0182E080933F01A3DC15
:1026300088CD0230C9F52091300130913101A8E5F3
:10264000BBE10E943F3C6B8B7C8B8D8B9E8B24EC83
:1026500036E340E050E00E94233C290181E085B947
:1026600095E094B980E00E9448079C01241935093F
:102670003A83298381E184B980E00E9448079C0164
:10268000241935093C832B8384E085B984E184B91E
:1026900081E00E9448079C01241935093E832D835F
:1026A00089EC90E018D937C0033059F5D5B824B873
:1026B00080E00E9448072091300130913101369529
:1026C000279538872F83821B930B9A838983A2E2F5
:1026D000A4B980E00E9448072F813885821B930BA4
:1026E0009C838B83C5B8B8E2B4B981E00E944807E7
:1026F0002F813885821B930B9E838D838BEB90E01B
:10270000D1CF0430D9F48FE392E0E5D8EDDC882313
:1027100011F0E2E0EF870E943B0A89819A810E94D2
:102720000B060E9421068B819C810E940B060E9451
:1027300021068D819E810E940B06BBCD0530B1F430
:1027400015B8D4B880E00E9448079A838983C4B83A
:1027500081E00E9448079C838B8334B882E00E940A
:1027600048079E838D838BED90E09CCF063051F51A
:10277000D4B8D5B880E00E9448072091300130914C
:102780003101821B930B9A838983C4B8C5B881E059
:102790000E9448072091300130913101821B930B38
:1027A0009C838B8334B835B882E00E94480720911F
:1027B000300130913101821B930B9E838D8387ED15
:1027C00090E070CF073009F0A6CF20913001309112
:1027D0003101A8E5BBE10E943F3C6B8B7C8B8D8B6C
:1027E0009E8BA50194010E94013C2901D5B8F3E01C
:1027F000F4B980E00E9448079C01241935093A8306
:102800002983C5B82CE024B981E00E9448079C01C7
:10281000241935093C832B8335B880E384B982E0E1
:102820000E9448079C01241935093E832D8385EBBE
:1028300090E038CF0E94000B8FE392E04CD884E602
:102840000E941C07015009F050CD52CD80913801F3
:10285000823009F4CBCDF886EF8210923801CBCDCF
:10286000CA01B901A50194010E94013C0F5F1FCE6E
:10287000F12C0E943B0A80917D0190917E01A091F4
:102880007F01B091800104E026E440918F01BC01FA
:10289000CD0174D80E94D90A88E20E941C07EA94EC
:1028A000E110F3CDAFCE8091380181110DC088E3E6
:1028B00093E00E947C3D61E0680F8BE393E00E940F
:1028C000893D81E0809338010895A5E0B0E0EBE612
:1028D000F4E10C94F33C6D83E82FF0E0EC5BFD4FEA
:1028E000E491E8B9E7B915B88D81E82FF0E0EF5B26
:1028F000FD4FE491E4B9EE0FE98308E813E17801B4
:102900008D810E9448078C01898184B90E151F05AD
:10291000B0F301151105E9F00E94490A81E391E045
:102920000E946B0CD80120EA36E841E050E00E949A
:10293000543C28E937EB40E050E00E94013C69013B
:102940007A0122E041E467EFC601FBD817B818B856
:1029500014B82596E8E00C940F3D00D000D0CDB718
:10296000DEB780E48AB98BB987E880937A00109249
:10297000C1000E94FA0624B72870298384B7877F94
:1029800084BF0FB6F894A895809160008861809309
:102990006000109260000FBE86E88093640088E3B8
:1029A00080937E001092B00087E08093B10078940D
:1029B0000E94900A3981311170C580E185BF84E0A1
:1029C0008093110119824F990AC00E941B07498107
:1029D0004F5F49834C33B9F780E69DE605C0898196
:1029E0008F31D0F78FE59DE690930C0180930B011A
:1029F00010922D010E940E2888E19FE00FB6F894F6
:102A0000A895809360000FBE9093600099819C33DD
:102A100009F463C080E4C82E81E0D82E92E6E92E46
:102A200091E0F92E2CE0222E30EFB32E43E3A42EBA
:102A300051E2952E62E1862E70E2372E0E946E0AD8
:102A400017B8E9DA0E940E280E94350A38D580911D
:102A50003B01882379F00E943B0A86E491E00E94C2
:102A60006B0C63E080913001909131018AD888EC41
:102A70000E941C074F9B36C00E943B0A0E941724ED
:102A800080911A01893009F042C00E946E0A8BE4DD
:102A900091E00E946B0C0E943B0A63E0809154011C
:102AA000909155016ED80E94210663E080915601F5
:102AB0009091570166D80E94210663E080915801E9
:102AC000909159015ED88AEC0E941C0781E11BDBC2
:102AD00000910B0110910C01AEC10E9422328111B4
:102AE000FCCF98CF0E94000B8BE291E00E946B0C10
:102AF00017B883E00E944F0763E02AE0DC012A9FB9
:102B0000C0012B9F900D11243CD88CE3B1CF8BE3F7
:102B100093E00E947C3D182F88E393E00E947C3D67
:102B2000181B1093380180E0EEDA0E94000B84EB52
:102B300092E00E946B0C42E061E080E02CD542E024
:102B400060E081E028D541E062E080E024D541E00A
:102B500060E082E020D540E062E081E01CD540E00A
:102B600061E082E018D580911A0181110EC00E94A7
:102B7000172460E082E00E94F12461E082E00E947C
:102B8000F12460E081E00E94F1240E946E0AD0925C
:102B90003E01C0923D0180911A018630F1F485EC2E
:102BA0000E94B70B60E188EF25D866E080E00E94C4
:102BB000280A8BE892E00E946B0C66E082E00E949B
:102BC000280A8FE591E00E946B0C62E0809144013D
:102BD000909145010E94C10D7BCF873069F484EC50
:102BE0000E94B70B60E188EF05D866E080E00E94A4
:102BF000280A84E992E0DFCF8830F1F480918D01DA
:102C000090918E01890F9927991F029789F40E944C
:102C1000802A80913801882349F00E946E0A87E457
:102C200092E00E945E0C80E197E23BD917DA06CF72
:102C300080E00E94A8294CCF833009F00EC180911A
:102C40001801813009F06DC080E00E94C9066091D2
:102C5000950180919B0139DE80E70E94A10640E04A
:102C60006091950180919B010E94703760937D0176
:102C700070937E0180937F019093800180E00E9499
:102C8000F90A80917D0190917E01A0917F01B09120
:102C9000800189839A83AB83BC8302E026E442EF00
:102CA000BC01CD010E94BE0C0E94230641E0609150
:102CB000950180919B010E94703760937D01709314
:102CC0007E0180937F019093800126E442EF0E9471
:102CD000BE0C8CE191E00E946B0C809178018823FE
:102CE00009F4F6CE90E197B917B880E00E94F90A8E
:102CF00020917801222309F4BEC380915F01213025
:102D000009F050C30E946406692F90915F019130D1
:102D100009F044C390911801911140C30E94362AD2
:102D200078CF823081F582E30E94000C8DE091E043
:102D30000E946B0C9091950130919601931308C0FD
:102D400080E00E94E50681E00E94DC0681E085CFFC
:102D500020919B0180919C01281307C080E00E9474
:102D6000D50681E00E94EC06F1CF321306C081E067
:102D7000809306010E94B706B0CF98133DC090E142
:102D800090930601F7CF8330B9F5A09206018091A8
:102D90009B0190919601891303C021E020930601C5
:102DA0004091950130919C01431303C0A0E1A09391
:102DB000060120919701821303C082E080930601EF
:102DC00080919D01481302C03092060132130EC05B
:102DD00080920601981302C09092060183E30E943C
:102DE000000C8DE091E00E946B0CC4CF9817A1F30A
:102DF00080910601823290F38AE992E00E946B0C86
:102E000082E892E00E946B0C0E943B0A80911801BC
:102E1000805D0E94000C8AE20E94000C87E291E033
:102E20000E946B0C88E692E00E946B0C86E00E9488
:102E3000B70B00E41FE180E187B94F9BFECFC801CB
:102E400030D8823328F490911301933008F420C3D2
:102E50000E9422328111FCCFF1CD843009F05CC197
:102E600080917101882309F465C080914F01882306
:102E700009F460C060914C0180914E010E94F124E0
:102E800040907D0150907E0160907F0170908001A4
:102E900010918F016091700180916E010E94F12468
:102EA0008091400190914101A0914201B091430174
:102EB00040916201509163016091640170916501DC
:102EC000843F21E09207A105B10538F4443F31E089
:102ED00053076105710508F010EF443F514061054B
:102EE000710538F4843F9140A105B10510F0B0920E
:102EF0008F0180918F01811310C080917D0190918D
:102F00007E01A0917F01B0918001481659066A06A2
:102F10007B0628F02092190105C01817DCF74DE058
:102F20004093190180917101882321F080914F0114
:102F30008111D2C066E080E00E94280A80EC0E94E5
:102F4000B70B809119018C3009F0CFC08BE791E06D
:102F50000E946B0C80917101882319F080E70E9418
:102F6000000C34D8182F853098F4A0913D01B09111
:102F70003E01E82FF0E0EB56FE4F1D969C918081BC
:102F800062E0981301C060E082E991E00E94E50BE5
:102F900060E189EF0E94FA0D86E00E94DF0A8AE86C
:102FA00091E00E946B0CE0913D01F0913E01808127
:102FB0009181A281B38189839A83AB83BC8303E02F
:102FC00020E04EEFBC01CD010E94BE0C87E00E94C4
:102FD000DF0A89E40E94000CE0913D01F0913E017E
:102FE000868197818031974208F492C085E60E94DD
:102FF000000CE0913D01F0913E0186819781805166
:103000009742978386830E942506E0913D01F091C7
:103010003E0122E041E46AEF868197810E94A10D82
:1030200086E00E94DF0A83E691E00E946B0CE0914B
:103030003D01F0913E0163E0848195810E94C10DC4
:1030400081E080933F01E0913D01F0913E01808558
:103050009185892B91F085E00E94F90A8FEE90E02E
:103060000E946B0CE0913D01F0913E0122E041E4B1
:103070006AEF808591850E94A10DE0913D01F0915C
:103080003E0182859385892B91F085E00E94F90AA3
:1030900089EE90E00E946B0CE0913D01F0913E01C1
:1030A00022E041E46AEF828593850E94A10D1530EC
:1030B00068F480E00E94F90A812F0E94C9068FE51A
:1030C00091E00E946B0C812F0E94930643E462E41E
:1030D00085E40E944E06FCCC4F992CCF80911901BB
:1030E00091E089278093190125CFF0923E01E0926B
:1030F0003D0187EC91E00E94FD0B83E791E00E9487
:103100006B0C80914F01882309F42BCF8EE627CFDB
:1031100083E60E94000C77CF853009F0E9CD66E0A8
:1031200080E00E94280A80911901182F107184FFF5
:1031300066C080E50E94000CF0923E01E0923D01E5
:1031400012E00E94230680911901082F0F700430AD
:1031500009F059C085E991E00E946B0C83EC0E9454
:10316000B70B80ED91E011116FC00E94E60F853022
:1031700098F4A0913D01B0913E01E82FF0E0EB56AC
:10318000FE4F1D969C91808162E0981301C060E023
:1031900082E991E00E94E50B60E189EF0E94FA0D5F
:1031A00086E00E94DF0A86E00E94DF0A8091190112
:1031B00085FD63C08BE591E00E946B0CE0913D01C1
:1031C000F0913E0162E0828593850E94C10DE091FD
:1031D0003D01F0913E01668584850E94F12486E0E0
:1031E0000E94DF0A0E94840C85E00E94AA0C4FE333
:1031F00067E48FE3043009F46CCF10E0C2C08EE4C2
:103200000E94000C9ECF85FF19C084E40E94000C30
:103210001F5F0330E1F48FE891E00E946B0C81ECBA
:103220000E94B70B8DE192E0113071F0123051F035
:10323000133009F09ACF89EF91E006C085E40E942F
:10324000000CE7CF89E292E00E94FD0B8ECF8AE965
:1032500091E00E946B0C82EC0E94B70B89EE91E02A
:10326000113091F3123031F0133009F07ECF87ED39
:1032700091E0EACF8FEE91E0E7CFE0913D01F09150
:103280003E018F70843009F454C0668584850E94A5
:10329000F1240E94840C60E086E00E94280A89E400
:1032A0000E94000C84E60E94000C0E942506E0911A
:1032B0003D01F0913E0122E041E46AEF8681978171
:1032C0000E94A10D85E591E00E946B0CE0913D010B
:1032D000F0913E0162E0828593850E94C10DE091EC
:1032E0003D01F0913E0180859185803C9241F8F44A
:1032F00080E00E94F90A89E40E94000C84E60E94A2
:10330000000C0E94250622E041E46BEF90E080E093
:103310000E94A10D85E591E00E946B0CE0913D01BA
:10332000F0913E0162E0808591850E94C10D80E0B0
:103330005CCF84819581892B09F4ADCF80E090E04A
:103340000E946B0CE0913D01F0913E0122E041E4CE
:103350006AEF848195810E94A10D9DCF111103C058
:1033600080E00E94DF0A80E00E94F90A812F0E941B
:10337000C9068FE591E00E946B0C812F0E94930695
:103380001F5F80911801181748F344E467E483E550
:10339000033009F09ECE43E467E49ACE40E00E94F9
:1033A000E42896CB9091600134E0939FD0011124E2
:1033B000AE54BE4F44E0849FF0011124EE54FE4F02
:1033C0004D905D906D907C904081518162817381C0
:1033D000192F441555056605770508F0182F22307A
:1033E00049F5980F13E0191B712E769402E0011B2A
:1033F00011113EC031E03983872D0E94500C88E0C6
:1034000091E00E946B0C802F0E94500C88E091E0AC
:103410000E946B0C89810E94500C80E00E94DF0AA0
:1034200081E0111180E00E946E0682E087190E94FF
:103430006E064ECB8091610194E0899FD0011124EA
:10344000AE54BE4F24E0129FF0011124EE54FE4F03
:103450004D905D906D907C9040815181628173812F
:10346000441555056605770508F0BECF182FBCCF6B
:1034700042E04983C1CF82E792E00E946B0C0E9438
:103480003B0A8FE992E00E946B0C8AE992E0CCCC77
:103490008111D4CA9111D3CCBCCB0E94350A8FE5DF
:1034A00092E00E946B0C8BEC0E941C070E942E1075
:1034B00090E080E00F900F900F900F9008950F9381
:1034C0001F93CF93DF9385E00E94530785E00E940E
:1034D0004F07EC018C01065F1F4F10923601043834
:1034E00083E0180770F48FE991E00E946B0C0E9452
:1034F000D90A81E080933601DF91CF911F910F911E
:1035000008958EEA91E00E946B0C62E0C8010E946F
:10351000C10D0E942106C4378EE0D807B0F4C43E26
:10352000DC4060F488EA92E00E946B0C0E94D90AA9
:103530008DEC0E941C070E942E10DECF8FEA92E0D5
:103540000E946B0C0E94D90AD7CF8BEA91E0F8CF8A
:10355000FC019C01261B370BCA0170E060E0A90149
:10356000460F511D452F5527620F240F351FAC0103
:10357000470F511D452F5527780FDA01AA0FBB1FA2
:103580008A0F9B1F4B3E20F4E217F30740F7089584
:1035900090E080E00895A2E2B0E0E1EDFAE10C9461
:1035A000E93C89A3162F4987A895E62FF0E0EF5B49
:1035B000FD4FC490C88ACC0CCE8E33963490E42F45
:1035C000F0E0EF5BFD4F04913396B490E82FF0E00C
:1035D000EF5BFD4F2490D22CDD0CDA8E3396E49015
:1035E000EAA205B9F888F02AFE8AF4B8E7B8E8B884
:1035F000862F0E944F078D839E83C888C4B8812F71
:103600000E944F073C0114B80E94030715B8F4B894
:10361000812F0E944F076D817E810E94B1077C013E
:1036200037B818B8402E422845B844B889A10E943E
:103630004F070E94B707582E892E15B80E9403071E
:1036400025B889A10E944F070E94B7076C0124B8D2
:1036500089A10E944F070E94B707982EA92EB60194
:10366000852D982D0E94B1079C018032914030F445
:1036700080E2E81681E0F80608F4C9C5EC0CFD1CF0
:10368000AD81BE812A0F3B1FE216F30620F4DE82D5
:10369000CD82692C7A2C20914F0180917101820F8B
:1036A0009927991F02974CF0213009F0B0C59091ED
:1036B0004C0180916E019813AAC5D02EDD0CC888EC
:1036C000CD28CB8E5D2C52282D813E8124373105AB
:1036D00008F4ADC1C9010A96880F991F68167906CA
:1036E00008F0A5C1CAA0C7B8C8B8EB8CE4B8812F50
:1036F0000E944C077C0189850E945307A82EC92E81
:10370000D5B8812F0E944C079701295A3D4F18B810
:1037100037B854B855B82817390708F0B8C08985A4
:103720000E944C0788349F4008F470C085E0809365
:103730001A0182E280931901F0924501E09244015E
:103740006A2D7C2DC7010E94BC0790934B0180938A
:103750004A019701A0E1B7E20E943F3C6D837E835E
:103760008F839887209114013091150150E040E03B
:103770000E94013C30934701209346018E8D8D2994
:1037800084B915B8CAA0C7B8C8B889850E945307BC
:10379000F82E092F812F0E944C076F2D702F0E9449
:1037A000BC078093480190934901209119012F7023
:1037B000243089F118B8B328B7B824B845B889A11E
:1037C0000E944F07082F99830E94B7077C01812F21
:1037D0000E945307BC01C0901B01D0901C01802F98
:1037E00099810E94BC079601DC010E943F3C970131
:1037F00050E040E00E94013C309345012093440199
:1038000080914F018F5F80934F018CC385E080933F
:103810001A0184E28FCF4091460150914701609197
:103820004A0170914B0194DE9C01892B29F1D4B897
:10383000DAA0D328D7B8812F0E944C07082F99838C
:1038400017B8282F3981A0E1B7E20E943F3C6D8371
:103850007E838F8398872091390130913A0150E01F
:1038600040E00E94013CA901602F798180914801CC
:10387000909149016DDE9C013093450120934401F4
:10388000809119018F70843009F4BACF93CF89A148
:103890000E944C077C0189850E945307A82EC92EDF
:1038A00025B889A10E944C07895A9D4F8E159F0506
:1038B00008F0ADC42AA128B927B989850E944C0710
:1038C000813D934008F06DC085E080931A0182E34A
:1038D00080931901B7018A2D9C2D0E94BC079093FB
:1038E0006D0180936C01C7010E94B7079C01A0E1A4
:1038F000B7E20E943F3C6D837E838F83988720913F
:103900001B0130911C0150E040E00E94013C3093CB
:1039100069012093680118B837B88A8D8D2984B958
:1039200085B989A10E945307F82E092F89850E9425
:103930004C076F2D702F0E94BC0780936A019093F3
:103940006B01209119012F70243081F1CAA0CB287E
:10395000C8B8C7B815B844B889A10E944F07082F46
:103960009983812F0E9453077C01C0901401D0904D
:103970001501BC01802F99810E94BC079601DC01D2
:103980000E943F3C970150E040E00E94013C309390
:10399000670120936601809171018F5F80937101AF
:1039A00056C185E080931A0184E392CF409168016B
:1039B0005091690160916C0170916D01C9DD9C01AC
:1039C000892B51F1D5B8D4B8DAA0D8B8ED2DE329B8
:1039D000E7B989A10E944C070E94B707F82E092F6A
:1039E00017B8282F392FA0E1B7E20E943F3C6D8322
:1039F0007E838F839887209132013091330150E08C
:103A000040E00E94013CA9016F2D702F80916A0156
:103A100090916B019DDD9C013093670120936601BD
:103A2000809119018F70843009F4B5CF8FCF18B809
:103A300037B825B854B889A10E944F078C8F9D8F45
:103A40000E94B70789839A8389850E9453078A87D2
:103A50009B8793012C593F4F38A32F8FE980FA8021
:103A6000B3012E153F0508F0F4C0C7010E94BC0742
:103A70007C0120911B0130911C0150E040E060E886
:103A800071EA83E09CE10E94013CD7010E94543C12
:103A90006C877D878E879F87EA84FB84970150E03F
:103AA00040E00E94013C49015A0114B815B8FAA03F
:103AB000F8B8F7B881E00E941C07CE88C4B8812FFF
:103AC0000E944F078F359D4008F46FC1CB8CC4B85E
:103AD000812F0E944C077C0189850E9453078C87A7
:103AE0009D8789A10E9453078C8B9D8B2C853D85DA
:103AF000213D374008F4E1C084E080931A018DE055
:103B00008093190167016E147F0410F4C618D7085A
:103B10002090140130901501512C412C60E871EA7D
:103B200083E09CE1A20191010E94013CD6010E9428
:103B3000543CCC84DD84960150E040E00E94013C7E
:103B400080917101882371F08091620190916301ED
:103B5000A0916401B091650182179307A407B5078E
:103B600008F096C020936201309363014093640192
:103B7000509365019701A0E1B7E20E943F3CA2018A
:103B800091010E94013C30936901209368016C858A
:103B90007D858C899D890E94BC07909367018093E5
:103BA000660181E04091620150916301609164017E
:103BB00070916501481559056A057B0508F06AC0D2
:103BC0008092620190926301A0926401B0926501BB
:103BD0006A857B858C8D9D8D0E94BC0790936701C3
:103BE0008093660129813A81A0E1B7E20E943F3CBF
:103BF00020911B0130911C0150E040E00E94013CEB
:103C0000205F384D3093690120936801C090140102
:103C1000D0901501F12CE12C9301A0E1B7E20E94B4
:103C20003F3CA70196010E94013C30936B01209319
:103C30006A012D813E81A0E1B7E20E943F3CA701CD
:103C400096010E94013C30936D0120936C0181E04C
:103C500023C089819A810E94BC077C0144B889A154
:103C60000E944F078C8F9D8F0E94B70789839A838C
:103C700089850E9453078A879B876A857B85C70150
:103C80000E94BC079C01A4E6B0E00E943F3C00CF2C
:103C900080E088CF8111BACF909171019F5F90939E
:103CA0007101882309F46DC3D984D0926E011093F9
:103CB0006F01E9A0E092700164C321E6621671040D
:103CC00008F073C031EDE31637E0F30608F46DC079
:103CD00085E080931A0182E180931901C701865023
:103CE0009F4FCC88DD888C159D0508F043C083E18B
:103CF00080931901232D2770322E8985806480934B
:103D00007C003BE03983CC24C394D12CEE24EA948C
:103D1000B3E0FB2EA89561E0802F72D54B8D44B99E
:103D200086B18321E9F3888984B980917A0080641F
:103D300080937A0080917A0086FDFCCF8091780094
:103D400090917900D701A81BB90BCA0EDB1EB9816F
:103D5000B150B983B111DECFC601880F991F880F0A
:103D6000991F69E070E00E94DA3B70936D016093E7
:103D70006C0111CEC0901401D0901501B7018C894F
:103D80009D890E94BC079601DC010E943F3C6D8327
:103D90007E838F839887970150E040E00E94013C2A
:103DA0003093670120936601A5CFCB8CC4B8D5B8FA
:103DB000812F0E944F074C0189850E9453078A87F3
:103DC0009C870E94B7077C01CF8CD8A0C814D90467
:103DD00008F0AAC0B301C4010E94BC076C01209185
:103DE00014013091150150E040E060E871EA83E091
:103DF0009CE10E94013CD6010E94543C69837A8375
:103E00008B839C83970150E040E00E94013C2E8B05
:103E10003F8B488F598F37B818B844B845B889A137
:103E20000E944F075C0189850E945307D82EC92E36
:103E3000812F0E9453077C0120E3A21621E1B206E4
:103E400008F0E3C125B889A10E944F0789839A83AE
:103E500024B889A10E944F078C8B9D8B15B881E0F7
:103E60000E941C0725B889A10E944F079C018C89DC
:103E70009D898034964008F075C02133314108F4A3
:103E800071C0C5018A569F4F29813A812817390789
:103E900008F068C086E080931A0180914F018F5F1F
:103EA00080934F01B7018D2D9C2D0E94BC079093EC
:103EB000450180934401B701C5010E94BC0790935E
:103EC0004B0180934A0114B815B838B881E00E94BC
:103ED0001C0724B889A10E944F07853F910510F562
:103EE00044B889850E944F07813D9340D8F089A14D
:103EF0000E9453078D3D9240A8F024B889A10E94EA
:103F00004F078D3D924070F025B881E00E941C075C
:103F100015B889A10E944F07853F910518F487E0E5
:103F200080931A0181E0F4C0DE88D4B805B9812FEE
:103F30000E944F074C0189850E9453078A879C87FE
:103F40000E94B7077C01C4016814790410F4861933
:103F50009709B7010E94BC079C01A4E6B0E00E944B
:103F60003F3C4CCF37B804B905B981E00E941C072B
:103F700054B855B889A10E944F076C010E94B70739
:103F80007C0189850E9453078C8B492E0E94B707BC
:103F900089839A83812F0E9453075C0129813A818A
:103FA0002E3F394008F4C5C084E080931A018CE0AC
:103FB00080931901B301C7010E94BC076C012091D5
:103FC0001B0130911C0150E040E060E871EA83E0A1
:103FD0009CE10E94013CD6010E94543CC980DA80D9
:103FE000960150E040E00E94013C80914F018823FF
:103FF00071F08091400190914101A0914201B091F6
:10400000430182179307A407B50708F07DC02093EA
:104010004001309341014093420150934301B50167
:104020008C89942D0E94BC07909345018093440194
:104030009701A0E1B7E20E943F3C20911B01309123
:104040001C0150E040E00E94013C30934701209366
:10405000460181E04091400150914101609142014F
:1040600070914301CE88DF88E88CF98C4C155D0592
:104070006E057F0508F04AC0C0924001D092410110
:10408000E0924201F0924301B4018A859C850E942E
:10409000BC0790934501809344019401A0E1B7E2ED
:1040A0000E943F3C209114013091150150E040E006
:1040B0000E94013C205F384D309347012093460118
:1040C0009301A0E1B7E20E943F3C2091140130919E
:1040D000150150E040E00E94013C309349012093DB
:1040E00048012D813E81A0E1B7E20E943F3C209132
:1040F0001B0130911C0150E040E00E94013C3093D4
:104100004B0120934A010ECF80E0A4CF8111D8CF7C
:1041100090914F019F5F90934F01882309F431C123
:10412000F984F0924C01C9A0C0924D0110934E0148
:1041300028C121E66216710408F067C039E4E3166D
:104140003DE0F30608F461C085E080931A0182E047
:1041500080931901C50186509F4F8C159D05D8F598
:1041600083E0809319014AA14770D42E8985806429
:1041700080937C008BE08983EE24E394F12CA89556
:1041800060E0802F3DD354B855B886B18D21E9F752
:1041900024B880917A00806480937A0080917A00BC
:1041A00086FDFCCF8091780090917900E80EF91E91
:1041B0009981915099839111E2CFC701880F991F7E
:1041C000880F991F69E070E00E94DA3B70934B0101
:1041D00060934A0115CB60901B0170901C01B501E2
:1041E000C6010E94BC079301DC010E943F3C6D8325
:1041F0007E838F839887970150E040E00E94013CC6
:104200003093450120934401AECF17B818B814B8C5
:1042100015B817B8A7EC6A16A1E07A0608F4D4C05E
:1042200018B8CA8CC4B868ECF62EEAA0E328E7B840
:1042300081E00E941C0737B889A10E94530742976A
:1042400018F0FA94F110F3CFDA8CD4B8D5B861E055
:10425000802FD6D289A10E944F074C01EE8CE4B882
:1042600015B8FAA0F7B8F8B860E0802FC9D2812F4E
:104270000E944F070E94B7077C01C888C4B8812FED
:104280000E9453076C0189A10E944F07B6010E944A
:10429000BC076C01812F0E9453075C0189A10E9419
:1042A0004F07B5010E94BC0796012C5E3F4F2817AF
:1042B000390708F466C018B837B824B825B861E0E3
:1042C000802F9ED2812F0E9453075C0189A10E94FA
:1042D0004F07B5010E94BC075C01C816D90608F05B
:1042E0005BC0DA8CD4B8D5B889A10E944F079C0175
:1042F0007401E8ECF0E048E4E41646E0F40630F43B
:10430000F70153E0F695E7955A95E1F788EEA81680
:1043100083E0B80608F051C0C50164E670E00E9471
:10432000DA3BC501875991098938914108F04CC0A1
:104330002A153B0508F048C0EE0DFF1DEA15FB05E8
:1043400008F042C06E157F0508F03EC080911A014A
:10435000833018F483E080931A0120911801822F92
:1043600090E0FC01EB56FE4FC9A0C0821683880F77
:10437000991FFC01EF55FE4FB182A0822F5F209361
:10438000180117B818B814B815B88EE20E94000CBE
:10439000A296E2E10C94053D2E8D24B915B83AA100
:1043A00037B938B960E0802F2BD2812F0E944F0798
:1043B0000E94B7079C0156019CCFB50144E0769559
:1043C00067954A95E1F7ADCF612F89A101D0D9CF8B
:1043D000A6E0B0E0EEEEF1E20C94EB3C8D836E8350
:1043E000A8952E81822F90E0FC01EF5BFD4F549049
:1043F000339624913D81432F50E0FA01EF5BFD4F4E
:10440000D4903396B4906091710130914F01630F55
:104410007727771F672B09F065C0A89560911E016B
:1044200070911F01660F771F660F771F7093310120
:10443000609330016091760170917701660F771F6C
:10444000660F771F70932F0160932E013EEB309320
:104450002C0130911801E5E9F1E0DF01480F591F07
:104460009A2F9E1B931708F118B827B9D4B8D5B85E
:1044700018E1C12EF12CE12C8E810E944F07782E7D
:10448000692E87018D810E9453077C01801B910B4F
:1044900097FF03C091958195910903970CF481C111
:1044A000A895CA94C110E8CF0AC08D9115966C9159
:1044B0001597680F7727771F6417750789F680911E
:1044C0001E0190911F0190933101809330018091E2
:1044D00076019091770190932F0180932E0189E1CD
:1044E00080932C012696E0E10C94073D85E8C816E0
:1044F00081E0D80620F7043AA2E01A0708F0BBC012
:10450000B8E9AB16B104D8F2C6010E94B707AC01F6
:104510009601A8E9B7EB0E943F3C9A0150E040E0C9
:104520000E94013C29013A01C5010E94B7079C0184
:10453000A8E9B7EB0E943F3C950150E040E00E94A3
:10454000013C88E7C8168FE0D80608F078C0A2E0E2
:10455000440C551C661C771CAA95D1F7D301C201E7
:10456000820F931FA41FB51FBC01CD0125E030E0D1
:1045700040E050E00E94013CA4E6B0E00E94543CC0
:1045800069837A838B839C836B017C019CEAC90ECF
:104590009DE0D91EE11CF11C10911A01143008F0A5
:1045A0008ECF9D819150AE81A90FAD832A2F30E02F
:1045B000F901E45AFE4F8081220F331F220F331F6F
:1045C0002E543E4FD901882309F4D0C08D909D9080
:1045D000AD90BC90A7019601281939094A095B09D9
:1045E00057FF07C050954095309521953F4F4F4F4D
:1045F0005F4FAAE0B0E00E94543CB4E68B0E911CE1
:10460000A11CB11CC80CD91CEA1CFB1C6C157D0537
:104610008E059F0508F053CF133019F081E0809389
:104620001A0182E0808380917801E82FF0E0E15A5E
:10463000FE4F2D8120838F5F8093780140CF98E7D4
:10464000A9169FE0B90670F4F2E0220F331F441F51
:10465000551FFA95D1F7DA01C901840D951DA61DE4
:10466000B71D82CF240D351D461D571D5695479504
:104670003795279581CFC0901B01D0901C01672DE5
:10468000762DE616F70608F4B701C7010E94BC07AD
:104690009601DC010E943F3C69837A838B839C8373
:1046A000C7010E94B7079C0150E040E069817A8110
:1046B0008B819C810E94013C29013A01A090140148
:1046C000B0901501892D982D8017910708F4C80125
:1046D000B8010E94BC079501DC010E943F3C698340
:1046E0007A838B839C83980150E040E00E94013CD8
:1046F000A8E7EA16AFE0FA06E0F472E0440C551CB5
:10470000661C771C7A95D1F7D301C201820F931FE3
:10471000A41FB51F89839A83AB83BC83BC01CD01E1
:1047200025E030E040E050E00E94013C69017A0160
:1047300033CF08379FE0190770F462E0220F331F70
:10474000441F551F6A95D1F7DA01C901840D951DE3
:10475000A61DB71DDFCF73016201C20ED31EE41E7A
:10476000F51EF694E794D794C79416CFCD92DD92B8
:10477000ED92FC92139781E08083A1CE550C54B842
:104780008E810E944F075C01B0ECEB16B4E4FB068F
:1047900008F4ACCE90EBC9169DE4D90608F08FCE94
:1047A000AACEDD0C15B8D4B88D810E944F07813593
:1047B000910508F084CED5B88D810E944F076C0119
:1047C000B7B8B8B815B854B8B8E14B2E10E000E04F
:1047D0008D810E944F07982E892E58018E810E944C
:1047E00053078C018A199B0997FF03C09195819506
:1047F000910903971CF2A8954A944110E9CF5FCE26
:10480000CF93C82FC09595B160FF0FC0982B95B975
:1048100094B1892B84B90E941B0784B18C2384B97D
:1048200085B18C2385B9CF9108959C23F0CFB0E05A
:10483000A0E0EDE1F4E20C94F23C8AE0D82E9FE394
:10484000B92E29E0C22E17B818B815B8B4B880E050
:104850000E944F078C0181E00E945307EC0182E027
:104860000E9453079C0180911A01893099F417B86E
:1048700014B81093550100935401D0935701C0937D
:1048800056013093590120935801CDB7DEB7E9E0C6
:104890000C940E3D0430110550F4C430D10508F0DD
:1048A0004CC02430310518F381E0826008C081E0FB
:1048B000083E134008F080E0C83ED340B0F3283EE5
:1048C000334008F4846087B9D0E0C0E0A89580E068
:1048D0000E9448077C0181E00E9453078C0182E01E
:1048E0000E9453079C0184E1E81685E0F80608F46D
:1048F000389A043195E0190708F4399A243185E093
:10490000380708F43A9A96E0E916F10430F40630D4
:10491000110518F42630310538F02196C43F81E0A6
:10492000D807A1F6C0921A0110E000E00C171D078D
:1049300031F4DA94D11087CFA8CF81E0BDCF0E94A7
:1049400009070F5F1F4FF2CFCF92DF92EF92FF92D6
:10495000CF93DF9300D000D0CDB7DEB720917D019B
:1049600030917E0140917F015091800180918F01B3
:1049700089838AE0C82ED12CE12CF12C8981982FD3
:104980009F5F9983213A96E8390791E049075105DD
:1049900008F580938F01A0913001B09131010E9400
:1049A000543C28E833E140E050E00E94013C209371
:1049B0007D0130937E0140937F01509380010F90E1
:1049C0000F900F900F90DF91CF91FF90EF90DF90BD
:1049D000CF900895CA01B901A70196010E94013C38
:1049E000CDCFA6E0B0E0E7EFF4E20C94F13C8D838C
:1049F000B62E880F2D81820F9FEF960F890F80931F
:104A00005101E22FF0E0EF5BFD4F44914E83862F82
:104A100090E0FC01EF5BFD4F1491FC01EC5BFD4F5E
:104A2000A49080911A019091180125E931E0D901F3
:104A30008130C1F42696EAE00C940D3D16968C91D7
:104A400016978B110EC08C914D8184130AC0FD0105
:104A5000EE0FFF1FE559F140448555854C3D55400B
:104A600048F311968A2F821B891740F310928A010E
:104A70001092890181EF80938F0110927D01109235
:104A80007E0110927F0110928001D1DE18B8A7B884
:104A900014B915B98D810E9453078C018B2D0E948A
:104AA000530714B810925301109252016C01C01AAE
:104AB000D10A8091520190915301843F914028F096
:104AC00017B818B814B815B8B5CF9E8195B994B970
:104AD0000E94030714B815B80E940A07A8958D8193
:104AE0000E9453077C01EC0CFD1C809152019091B7
:104AF00053018E37910520F0ABE4EA16F10404F37C
:104B0000BDE2EB16B1E0FB060CF038C28091520119
:104B10009091530101969093530180935201C9CF14
:104B2000C70145E1E41645E0F4060CF443C17FDE1D
:104B300015B887E087B918B8FE80FF0CF4B880E498
:104B400080937B0084E580BF8D81806480937C00AE
:104B500087E180937A000E940D0710925301109212
:104B6000520110928000109285001092840087E21A
:104B700086BB81E280936F0081E080937A01F5B873
:104B800090911A01953009F0D9C18093810081E09C
:104B900090E00D8002C0880F991F0A94E2F780957B
:104BA000877087B9F89483B7817F83BF80917A013A
:104BB000882389F083B7816083BF7894889583B711
:104BC0008E7F83BFF894A8958091520190915301F4
:104BD00080389C4059F7789410928100E0908600CC
:104BE000F090870010926F0087E980937A0014B8E4
:104BF00015B88D810E945307209134013091350101
:104C0000821B930B0C96909392018093910180915B
:104C10005201909153018034964008F051CF809119
:104C20005201909153019093880180938701F092F3
:104C30008601E092850184EF80938F01809152017B
:104C40009091530182349105D8F080918501909123
:104C50008601A0918701B0918801BC01CD0124E6B5
:104C600030E040E050E00E94013C20938501309309
:104C70008601409387015093880186EF80938F01CE
:104C8000A0917B01B0917C0120918501309186013A
:104C900040918701509188010E94543C20E436E005
:104CA00040E050E00E94013C209385013093860152
:104CB000409387015093880120937D0130937E01BA
:104CC00040937F01509380013FDE80918F01843FAC
:104CD00009F056C0C0907D01D0907E01E0907F0128
:104CE000F090800190EAC9169FE0D906E104F10432
:104CF000C0F4A70196012C543F4F4F4F5F4F60EA1D
:104D00007FE080E090E00E94013CC20ED31EE41ED2
:104D1000F51EC0927D01D0927E01E0927F01F0925B
:104D20008001C0907D01D0907E01E0907F01F090E5
:104D30008001C114D104A1E0EA06F10408F002C127
:104D4000D092C301C092C2018091510190E0885C71
:104D50009C4F0E947C3D90E0B0E0A0E08C159D054A
:104D6000AE05BF0508F0F5C0C81AD90AEA0AFB0A61
:104D7000C0927D01D0927E01E0927F01F09280018D
:104D80004E8144B980917D0190917E01A0917F0177
:104D9000B09180014997A105B10508F086C090CE79
:104DA0000E9404078D810E9453078C0D9D1DA895BC
:104DB0000F5F1F4F2091520130915301201731078F
:104DC00078F76701C81AD90A1C141D040CF0B3C087
:104DD00089ECC816D1040CF073CE28EE33E0D6016E
:104DE0000E944E3C69837A838B839C8397010F2CAE
:104DF000000C440B550B0E94013C8901809152012B
:104E0000909153010196B0E0A0E0809385019093CA
:104E10008601A0938701B0938801C7018C0D9D1D69
:104E20000E941808209185013091860140918701E8
:104E300050918801DC010E94543C60937D01709385
:104E40007E0180937F019093800160938501709330
:104E50008601809387019093880187EF80938F016B
:104E600073DDC0907D01D0907E01E0907F01F090D5
:104E700080018BE193E00E947C3DA8EEB3E0A81B8B
:104E8000B10987FDB395A70196010E945E3C24E617
:104E900030E040E050E00E94013C20937D013093DF
:104EA0007E0140937F0150938001809118018823F7
:104EB00029F080911A01853009F002CE88E08093B4
:104EC0001A0180918F01909190019817C4F0891375
:104ED000F7CDC0907D01D0907E01E0907F01F090F1
:104EE0008001409181015091820160918301709114
:104EF00084014C155D056E057F0508F0E1CD4091FC
:104F00007D0150917E0160917F01709180014093FD
:104F10008101509382016093830170938401809397
:104F2000900110938C0100938B01B0928D018D81C3
:104F300080938E01C5CD10E000E060CF80938100AA
:104F4000A7B830CE81E090E09093C3018093C20176
:104F5000FBCE24E1C20ED11CE11CF11CC816D906FF
:104F6000EA06FB0610F40E94531410927D01109281
:104F70007E0110927F011092800102CF00915201B8
:104F8000109153010115110509F4CACDC70110E0B4
:104F900000E010CF1F921FB61F9211248F939F9392
:104FA000B59904C080917A01811109C0B59B10C0E8
:104FB00080918600909187008A3F910548F4809106
:104FC00052019091530101969093530180935201A5
:104FD0009F918F911F901FBE1F9018951F921FB613
:104FE0001F9211248F939F9310927A01B09B10C04F
:104FF00080918600909187008A3F910548F48091C6
:105000005201909153010196909353018093520164
:105010009F918F911F901FBE1F901895A6E0B0E042
:10502000E4E1F8E20C94EF3C88E893E190931F01EF
:1050300080931E0190933101809330018EEB809319
:105040002C0118B880E187B90E94120717B884E0D4
:105050000E944F07AC018B5C9840833F9140A0F4C5
:1050600081E080933B012091300130913101AFEB21
:10507000B9E00E943F3C9A0150E040E00E94013CB0
:1050800030931F0120931E0180911E0190911F01FA
:1050900090933101809330018EE00E9453078EE09F
:1050A0000E944F0790933501809334010E94C507F9
:1050B000BEDB18B831E037B985E185B934B980E095
:1050C0000E944F078C0182E0E82EE7B894E0F92EA9
:1050D000F4B881E00E944F07080F191FF7B820E1CC
:1050E000D22ED4B882E00E944F07080F191F15B8BE
:1050F00081E088B987B984B980E00E944F070E9497
:10510000B70789839A83E8B8E7B8F4B881E00E94CA
:105110004F070E94B70729813A81280F391F3A8328
:105120002983F8B8F7B8D4B882E00E944F070E94EC
:10513000B70729813A81280F391F3E832D8317B87D
:1051400018B814B880913001909131016C01CC0CE9
:10515000DD1CC80ED91EC901800F911FC81AD90ABB
:10516000F12CE12C9801A0E9BAE10E943F3CA70193
:1051700096010E94013C49015A0130933A01209363
:1051800039012D813E81A0E9BAE10E943F3CA7018F
:1051900096010E94013C3093330120933201205745
:1051A000354E30931C0120931B0130E7831A35EEF6
:1051B000930A909215018092140189E180932C0149
:1051C0002696ECE00C940B3DA5E0B0E0EAEEF8E2A8
:1051D0000C94F33C8D836983142F0E94500C88E05B
:1051E00091E00E946B0C09D269818D810E94E139A6
:1051F000C090C601D090C701E090C801F090C901ED
:105200008091200187FD05C0C114D104E104F1049F
:1052100021F084E091E00E946B0C89810E94500C87
:10522000C114D104E104F10431F00E9421068091FF
:105230005F010E946E06112309F45FC080913C015A
:10524000813108F05AC08650990B8E5B9C4F0E94AA
:105250006B0C80E00E94F90AC114D104E104F1044E
:1052600009F44EC08091C6019091C701A091C80178
:10527000B091C90103E028E447EFBC01CD010E94D1
:10528000BE0C87E191E00E946B0C81E593E00E94E7
:10529000843D23E046E464EF0E94A10D8091BE01AD
:1052A0009091BF01A091C001B091C101892B8A2BBF
:1052B0008B2B09F442C080E00E94F90A8091BE0164
:1052C0009091BF01A091C001B091C10104E028E418
:1052D00040E0BC01CD010E94BE0C82E191E00E9441
:1052E0006B0C23E040E26FEF8091C4019091C50107
:1052F0000E94A10D0E94D90A27C00E94D90AA9CFF5
:1053000080915F010E946E06809120018E3F34F6ED
:1053100085E391E00E946B0C8091AD019091AE010C
:10532000A091AF01B091B00103E028E440912001C9
:10533000BC01CD010E94BE0CB1CF80E00E94DF0A0B
:1053400080913F018823B1F22596E8E00C940F3D4F
:10535000A6E0B0E0EEEAF9E20C94F53C182F0E94CA
:10536000350A80918D010E94500C81E591E00E94E8
:105370006B0C90D360918D0180918E010E947B080F
:105380008D839E838D819E8190938A018093890174
:10539000E0908B01F0908C018A3F9F4F20F489E0D0
:1053A00091E00E946B0C80918E010E94500C1123A1
:1053B00009F448C090913C0181E1891B0E941F0AB9
:1053C00089E690E00E946B0C0E943B0A809181016B
:1053D00090918201A0918301B091840104E026E4C0
:1053E00040919001BC01CD010E94BE0CAD81BE81F7
:1053F000AA3FBF4F68F480E491E00E946B0C22E06A
:105400004DE16EEF8091890190918A010E94A10D7A
:105410000E94D90A0E94420AE114F10469F089E36A
:1054200091E00E946B0C22E045E26FEF80918B01CE
:1054300090918C010E94A10D0E94D90A2696E6E067
:105440000C94113D0E94D90ABFCF8F7021F40E94A5
:10545000490A0C945F1A08958F3021F49091360117
:10546000913011F08F5F089580E00895CF9384E725
:1054700090E00E9487326AE080E00E94280A86E479
:1054800093E00E946B0CC0E00E940B1060E082E091
:105490000E94E82162E080E00E94E8210E94350A33
:1054A000809178018823C9F041E062E080E08CDEE1
:1054B0008C2FCBDF88EE93E00E94510F811109C041
:1054C00080911301843028F48C2FC6DFC82F8A3FC7
:1054D000D8F20E946E0ACF91089584E790E00E946E
:1054E0006B0C86E493E00E946B0C0E943B0A8FE3F6
:1054F0000E94000C80E00E94DF0A0E94D90AD8CFE7
:105500000F931F93CF93DF93C0E0D8E012EF01E138
:105510000E940B1060E082E064DAD0931A0180915F
:105520008F01843FE1F480917D0190917E01A091F3
:105530007F01B091800184369105A105B10578F411
:1055400040E060E082E00E94703760937D017093DC
:105550007E0180937F019093800110938F01809151
:105560008F01823F6CF18093900180917D01909139
:105570007E01A0917F01B091800180938101909381
:105580008201A0938301B093840181E0E1DE8C2F3E
:105590005CDF88EE93E00E94510F81110AC0809178
:1055A0001301843030F48C2F57DFC82F8A3F08F462
:1055B000AFCF0E946E0ADF91CF911F910F91089596
:1055C0000E94350A8DE690E00E946B0C80913C01B0
:1055D000902F981B892F0E941F0A89E690E00E9455
:1055E0006B0C0E943B0A8FE30E94000C0E94D90AB8
:1055F0000E94420A0E94D90ACACFAEE1B0E0E3E0BD
:10560000FBE20C94E93C82E08093200180911A0136
:10561000813009F0E9C180917801813009F0E4C15D
:1056200020905F0124E0229EF0011124EE54FE4FF1
:10563000408051806280738039E0431632E5530622
:105640006104710408F0D0C100E0822D023008F03E
:10565000CFC10E946406182F792EE92FF0E0EC5B91
:10566000FD4F349090E0FC01EF5BFD4FE49115B8E5
:1056700018B8402F4170498B50EF4516510408F07F
:10568000BDC14111BBC1A0901401B0901501A0E9AA
:10569000AA1AAAE1BA0A21E030E002C0220F331FA1
:1056A0008A95E2F7C901832987B984E1682E812FA1
:1056B0000E944C074C01872D0E94530744E084163A
:1056C000910410F4049718F06A946110F0CF50E43C
:1056D00050937B0084E580BF812F806480937C00A1
:1056E00097E190937A00F12CE12C109280001092B7
:1056F000850010928400A7E2A6BB0E940D07202F10
:1057000030E03E8F2D8F398931117FC181E8809340
:10571000810038B886B385FF81C118B81092810026
:1057200050E256BB2091860030918700690140917C
:105730008400509185002417350708F47DC187E95E
:1057400080937A00B4E13B2E812F0E944C074C01DC
:10575000872D0E94530744E08416910410F40497A7
:1057600018F03A943110F0CFE0913901F0913A01FC
:10577000E40DF51DEA0DFB1D209116013091170176
:1057800050E9A5165AE1B50608F05EC169E181EE5F
:10579000C816D104E104F10430F4C60165E070E0FC
:1057A0000E94DA3B645128523109261B310967FDFA
:1057B000339566E0862F90E0B0E0A0E08C159D0563
:1057C000AE05BF0508F049C1C81AD90AEA0AFB0AA2
:1057D0009989992329F0AAE3CA0ED11CE11CF11C76
:1057E000B0EAEB16F10418F0C12CD12C76014BE095
:1057F000C416D104E104F10428F051E0C51AD1081F
:10580000E108F1083F01912C812CA8EEB3E00E9441
:105810003F3C6D8B7E8B8F8B988FA0913001B09128
:10582000310195010E943F3CA4019F010E94013C6F
:10583000442755276D897E898F89988D0E94013C68
:10584000C9010E945708FC01A4019301C701B601D8
:105850000E94BF3B6D8B7E8B8F8B988FCF01B0E00A
:10586000A0E074E0880F991FAA1FBB1F7A95D1F79B
:105870009C01AD012B5F3F4F4F4F5F4F298F3A8FF8
:105880004B8F5C8FCA01B9012AE030E040E050E064
:105890000E94013C442755276D897E898F89988D08
:1058A0000E94013CED8DFE8DEE0FFF1FEE0FFF1FDE
:1058B00081E090E08C0F9D1FE80FF91F208331835A
:1058C000428353839989911118C0A4E1CA16D10467
:1058D000E104F10490F00F5FED8DFE8D3196EE0F37
:1058E000FF1FEE0FFF1F81E090E08C0F9D1FE80F60
:1058F000F91F2083318342835383A8950F5F0430BF
:1059000008F4A3CE18B884E00E941C0791E00D8132
:105910001E812F81388549815A816B817C81401796
:1059200051076207730708F090E00D851E852F85EB
:10593000388949855A856B857C8583E040175107F6
:105940006207730708F082E024E0829FD0011124EF
:1059500041E050E04C0F5D1FA40FB51FE92FF0E0B0
:10596000EE0FFF1FEE0FFF1FE40FF51F0D911D91AE
:105970002D913C91408151816281738104171507FB
:105980002607370708F0892F54E0859FF00111247E
:10599000A1E0B0E0AC0FBD1FEA0FFB1F40815181B9
:1059A000628173814093AD015093AE016093AF016A
:1059B0007093B00180FD55C0B0EF4B16510408F054
:1059C00050C08BEF809320018091AD019091AE018A
:1059D000A091AF01B091B001892B8A2B8B2B11F4D0
:1059E0001092200117B814B86E96E2E10C94053DB0
:1059F0000E9464069827892798272DCEE4B937B8E6
:105A0000A0901401B090150150CE38B80E9416072E
:105A100040E246BB81E8809381007CCE80FF7ACE55
:105A200091E096BBA89597012F5F3F4F7901203AEF
:105A3000310509F06FCE71CE80FF81CEA1E0A6BB0B
:105A4000BFEFEB1AFB0A7BCECF0168E57BE10E943A
:105A5000DA3B695F285D3F4FADCEC12CD12C76017A
:105A6000B7CE8CEF80932001DB01CA010596A11D02
:105A7000B11DBC01CD012AE030E040E050E00E94C1
:105A8000013C2093AD013093AE014093AF015093A0
:105A9000B0019ACFA7E0B0E0E0E5FDE20C94EB3C6A
:105AA00000918B0110918C010115110509F0ACC01A
:105AB000E0918D01F0E0EC5BFD4F24912983E091B2
:105AC0008E01F0E0EF5BFD4F34913F830E9417247D
:105AD00018B815B8498147B95F8154B980918E01D2
